:020000040800F2
:10000000C016002045010008FF4200086D350008B9
:10001000FD420008550B0008E946000800000000FA
:100020000000000000000000000000000343000882
:100030008F0B000800000000014300080543000882
:100040005F0100085F0100085F0100085F01000810
:100050005F0100085F0100085F0100085F01000800
:10006000910B00085F0100085F010008590B0008B0
:100070005F0100085F0100085F0100085F010008E0
:100080005F0100085F0100085F0100085F010008D0
:10009000DD4600085F0100085F0100085F010008FD
:1000A0005F0100085F0100085F0100085F010008B0
:1000B0008D43000899430008A54300085F0100082C
:1000C0005F0100087D350008713500085F010008F8
:1000D0005F0100085F010008D14600085F010008C9
:1000E0005F0100085F0100085F0100085F01000870
:1000F000C94300085F0100085F0100085F010008B4
:100100005F0100085F010008B14300085F010008BB
:10011000E5440008F1440008BD4300085F01000801
:100120005F0100085F0100085F0100085F0100082F
:10013000DFF80CD000F064FC00480047094C0008D0
:10014000C01600200648804706480047FEE7FEE745
:10015000FEE7FEE7FEE7FEE7FEE7FEE7FEE7FEE777
:100160008943000831010008202A04DB203A21FAE3
:1001700002F00021704721FA02F3D040C2F12002C0
:100180009140084319467047D2B201E000F8012BB4
:10019000491EFBD270470022F6E710B513460A4607
:1001A00004461946FFF7F0FF204610BDF0B480EA80
:1001B0000102D40F4200B2EB410F02D202460846C0
:1001C00011464A0042D0C30DDDB2C1F3C752AD1A89
:1001D000202D35DAC1F3160141F4000204B1524278
:1001E000C5F1200602FA06F12A411044B3EBD05FB4
:1001F00023D0C4B1012DA0EBC35009DCF0BC4FF0FB
:10020000004202EAC352DBB200F5000000F06CBB12
:10021000400000F1807000EBC350A0F1807040EA14
:10022000D170490009E0490841EAC071A0EBC35010
:1002300000F50000400800EBC350F0BC00F04BBBE1
:100240006142012202EB4101001BF6E7F0BC70475E
:1002500081F00041AAE780F00040A7E780EA0102B0
:1002600010B502F00043400022D04A001FD0010E1A
:1002700001EB1261C0F35600C2F3560240F40000D5
:1002800042F40002A0FB022000047F39140400D0D5
:10029000401C50EA124001D44000491EC2B20C0674
:1002A00004EBD010401C4008802A02D003E000205C
:1002B00010BD20F00100002900DA0020184310BD15
:1002C00030B480EA010202F0004530F0004221F033
:1002D000004013D090B1C30DD40DC2F31601C0F38A
:1002E0001600E41A41F4000140F400027D3491420A
:1002F00001D3641C00E04900002C02DA30BC00206D
:1003000070474FF400000023914201D3891A034340
:1003100040084FEA4101F7D151B1914202D14FF06B
:10032000004105E002D24FF0010101E06FF0010150
:1003300003EBC450284430BC00F0CDBA420005D0D5
:10034000C0F3C7525242914201DC0020704700EBDB
:10035000C15070472DE9FE4F804681EA0300C00F6F
:100360000C46009021F0004123F00045B8EB02005C
:10037000A94105D24046214690461C460B460246FE
:1003800023F00040104347D0270DC7F30A00C3F302
:100390000A510290401A019040286BDAC3F313000F
:1003A00040F4801B0098924620B10023D2EB030A50
:1003B00063EB0B0B01985946C0F14002504600F028
:1003C00069FA06460D4650465946019A00F071FA00
:1003D00010EB08006141002487EA115284EAE773B8
:1003E0001A4340D0009A62B3019A012A4FEA075299
:1003F00015DC001B61EB02014FF0004202EA0752DC
:10040000CDE90042001C41F5801132462B4600F038
:10041000A8FA03B0BDE8F08F40462146F9E7001B7B
:1004200061EB0201001C41F5801300185B412018AC
:10043000A2F5001747EB030140EAD570B6196D41EC
:1004400011E06D084FEA360645EAC0754FEA0752DB
:10045000001B61EB0201001C41F5801149084FEAC5
:1004600030000019514132462B4603B0BDE8F04F31
:1004700000F068BA0098012240000023D0EB02028D
:1004800063EBE073009821464FEAE074B8EB00009C
:1004900061EB0401E9E783F000435BE781F0004191
:1004A00058E72DE9FE4F81EA030404F0004421F0EF
:1004B000004100944FF0000B23F0004350EA010488
:1004C0005ED052EA03045BD0C3F30A54C1F30A5569
:1004D0002C44A4F2F3340194A0FB0254C1F31301A1
:1004E00041F48011C3F3130343F4801301FB02446E
:1004F00000FB034E840A970A44EA815447EA835773
:10050000A4FB076802958D0A05FB07854FEA932C2B
:1005100004FB0C542705029D4FEA065847EA16379C
:10052000B5EB08056EEB070C870E920E47EA8117B4
:1005300042EA8312A7FB0201B6EB0B0164EB000455
:100540002B0D43EA0C335E1844EB1C50DA4651463F
:10055000E7FB0201C5F313044FEA0B3343EA1453DC
:100560004FEA0432019C43EA0603A4F10C0402940E
:10057000009CCDE900B400F0F4F903B0BDE8F08FC1
:1005800000200146F9E72DE9F04D81EA030404F06B
:10059000004B21F0004514464FF0000A23F00041C3
:1005A00050EA050220D054EA01021DD0C5F30A57D3
:1005B0000246C5F31303C1F31300C1F30A5640F416
:1005C000801543F48013A7EB0608101BD64608F2EB
:1005D000FD3873EB050002D308F1010801E0921821
:1005E0005B41B8F1000F03DA00200146BDE8F08D51
:1005F00000204FF48011064684460EE0171B73EB73
:10060000050705D3121B63EB050306434CEA010CF7
:1006100049084FEA300092185B4150EA0107EDD1DA
:1006200052EA030012D082EA040083EA050108437B
:1006300005D0101BAB4106D20122002306E00022A8
:100640004FF0004302E06FF0010253101AEB060076
:100650004CEB085110EB0A0041EB0B01BDE8F04DEB
:1006600000F070B970B521F0004303430CD0C1F322
:100670000A550024D5EB040564EB0403D617AD1A24
:10068000B34102DB0020014670BD201841EB02514E
:1006900070BDC10F80EAE0700844CA0796230021AC
:1006A00000F022B996230022114600F01DB90EB5C4
:1006B000C10F80EAE0700844CA07002140F23343CA
:1006C0008DE80E000A460B4600F04BF903B000BD62
:1006D0000EB540F2334102910021CDE900110A46E6
:1006E0000B4600F03EF903B000BD00F0004220F0E0
:1006F0000040C10DC0F3160040F400007F2901DA6C
:1007000000207047962903DCC1F19601C84001E042
:1007100096398840002AF4D04042704720F00040CB
:10072000C10DC0F3160040F400007F2901DA00205B
:100730007047962903DCC1F19601C840704796398D
:100740008840704770B5C1F30A5201F0004500249B
:10075000C1F3130140F2FF3341F480119A4201DAF0
:10076000002070BD40F233439A42A2F2334203DCD0
:100770005242FFF7F9FC00E090402C43F1D0404298
:1007800070BD00F0004230F000400AD0C10D01F50C
:100790006071C0F3160042EA0151C20840071143DC
:1007A000704700200146704730B5041E71F1000407
:1007B00004DB4FF00044404264EB0101141E73F16E
:1007C000000405DB1C464FF00043524263EB040378
:1007D0008B4208BF824230BD30B5041E71F1000467
:1007E00004DB4FF00044404264EB0101141E73F13E
:1007F000000405DB1C464FF00043524263EB040348
:10080000994208BF904230BD01F0004330B421F05E
:10081000004150EA010206D00A0DA2F56072C1F350
:100820001301002A02DC30BC00207047440F44EA68
:10083000C104C100E01830BC00EBC25000F04BB85E
:10084000002801DBC0F10040002901DBC1F10041BB
:1008500081427047002801DBC0F10040002901DB24
:10086000C1F100418842704730B50B460146002077
:100870002022012409E021FA02F59D4205D303FA62
:1008800002F5491B04FA02F52844151EA2F10102E3
:10089000F1DC30BD202A04DB203A00FA02F100200E
:1008A00070479140C2F1200320FA03F319439040AE
:1008B0007047202A06DBCB17203A41FA02F043EAC0
:1008C000E07306E041FA02F3D040C2F12002914009
:1008D0000843194670470029A8BF7047401C4900CB
:1008E00008BF20F00100704710B4B0FA80FC00FA95
:1008F0000CF050EA010404BF10BC704749B1CCF1C0
:10090000200421FA04F411FA0CF118BF012121434B
:100910000843A3EB0C01CB1D4FEA00614FEA102006
:1009200042BF002010BC704700EBC35010440029A8
:10093000A4BF10BC7047401C490008BF20F0010054
:1009400010BC704710B5141E73F1000408DA401C87
:1009500041F1000192185B411A4301D120F00100DE
:1009600010BD2DE9F04D92469B4611B1B1FA81F2CE
:1009700002E0B0FA80F220329046FFF78BFF044687
:100980000F4640EA0A0041EA0B0153465A46084323
:1009900013D0114653EA010019D0C8F14002504665
:1009A000FFF7E2FB05460E46504659464246FFF722
:1009B00071FF084305D0012004E020463946BDE818
:1009C000F08D0020054346EAE0762C4337430A9831
:1009D0006305E40AA0EB08000022FD0A44EA47543C
:1009E0000A3002D500200146E9E7010510196941E6
:1009F000DDE9084500196941BDE8F04DA2E70000B6
:100A0000064C074D06E0E06840F0010394E807005B
:100A100098471034AC42F6D3FFF78EFBFC6E00080B
:100A20001C6F000870B5044600688168C943C90797
:100A30001CD1816821F00101816001F009F90546AE
:100A40000FE000BF01F004F9401B022809D9A06A99
:100A500040F01000A062E06A40F00100E062012076
:100A600070BD20688068C043C007EBD0002070BD17
:100A700010B50146406A826A12F0500F05D0006A34
:100A8000026BBDE8104008461047816A41F40071CE
:100A9000816201688968C1F3424107290CD1017B59
:100AA00051B9816A21F480718162816AC90403D4D9
:100AB000816A41F00101816200F052F910BD10B568
:100AC000406A816A41F040018162C16A41F00401DB
:100AD000C16200F047F910BD10B5406A00F041F95D
:100AE00010BD0000F8B50026044600960068816835
:100AF000C943C90728D0816841F0010181601348CA
:100B000013490068B0FBF1F000E0401E009000289F
:100B1000FBD101F09DF8054611E000BF01F098F807
:100B2000401B02280BD9A06A40F01000A062E06AC6
:100B300040F00100E06284F824600120F8BD2068E4
:100B40008068C043C007E9D10020F8BD280000201C
:100B500040420F00FEE70000014800F0B1BD000078
:100B60007C12002030B590F840500124AC40C56B99
:100B70006C60046863604368102B036803D099605D
:100B80000068C26030BD9A600068C16030BD7047C7
:100B9000042000F043BF72B6FEE70000F8B5002560
:100BA0000446009590F82400012808D0012084F81C
:100BB00024002046FFF736FF060002D04BE002205B
:100BC000F8BDA06A20F4885040F00200A062022024
:100BD00001F0AAFB22490968B1FBF0F0400000E0F7
:100BE000401E00900028FBD12046FFF77BFF2068C5
:100BF000816841F00801816001F02AF8074604E0AD
:100C000001F026F8C01B0A2811D820688068000768
:100C1000F6D42068816841F00401816001F018F881
:100C200007460EE001F014F8C01B0A2809D9A06A93
:100C300020F0020040F01000A06284F8245001204F
:100C4000F8BD206880684007ECD4A06A20F002005C
:100C500040F00100A06284F824503046F8BD000046
:100C600028000020F8B50024009490F824202546A0
:100C7000012A12D0012280F824204A681F23072A63
:100C80000DD20668776B521E02EB820293409F439F
:100C90000B6893401F43776319E00220F8BD066894
:100CA0000D2A0AD2376BD21F02EB820293409F4378
:100CB0000B6893401F43376309E0F76A0D3A02EB74
:100CC000820293409F430B6893401F43F7620A6878
:100CD000072306680A2A0AD3F7680A3A02EB420297
:100CE00093409F438B6893401F43F76008E0376948
:100CF00002EB420293409F438B6893401F4337614E
:100D00000A68102A01D0112A20D1124B02689A4297
:100D100017D193681B0219D4936843F400039360BE
:100D20000968102912D10C490C4A0968B1FBF2F18B
:100D300001EB8101490000E0491E00910029FBD12F
:100D400004E0816A41F020018162012480F824508E
:100D50002046F8BD002401402800002040420F003A
:100D600070477047704700002DE9F04104004FF0D4
:100D700000057FD0A06A002628B9E66284F82460C6
:100D8000204600F081F82046FFF74CFEA16AC90614
:100D900000D420B1A06A40F01000A0626AE0A16A0D
:100DA00021F4885141F00201A162334923688B424A
:100DB000E16904D1B1F5402F01D14FF40021277B27
:100DC0004FF4807C41EA470261680A43A1686145AB
:100DD00008D0012906D0002194F814E0BEF1010FDB
:100DE00002D00AE06146F7E7C7B1A76A47F02007DB
:100DF000A762E76A47F00107E7625F6827F469477F
:100E00000F435F60236899681C4F39401143996014
:100E1000A16861450BD0012909D00CE0DFF860E042
:100E2000A7690EEB47370F4347F40061E5E7218AD6
:100E30000D05A5F580152168CB6A23F470032B43BB
:100E4000CB62216889680F4B1940914208D1E66254
:100E5000A16A21F0020141F00101A162BDE8F08127
:100E6000A06A20F0020040F01000A062E06A40F0AA
:100E70000100E0620120F1E7003C0140FDF7E1FFE5
:100E800000E0FFFFFE0E1FFF70B586B0002506468E
:100E900000950195029503950068224988423ED14C
:100EA0002149886940F400708861886900F4007005
:100EB0000490886940F004008861886900F00400AB
:100EC0000490886940F0100088618869032400F06C
:100ED00010000490C320CDE900046946134800F0D7
:100EE000A9FD1020CDE900046946114800F0A2FDDB
:100EF000114C1048C4E900058020C4E902504000AC
:100F000020618000C4E905054FF44050E0612046AF
:100F100000F0FAFC08B1FFF73EFE3462666206B0EC
:100F200070BD000000240140001002400008014094
:100F300000100140080002407C1200202DE9F0471B
:100F4000894604463B4900683B4F0E1D9046884247
:100F500001D0B84207D1306810F4702F03D00125BA
:100F60002846BDE8F08794F8240001280CD0012021
:100F700084F824002046FFF7B5FD05004FF000007F
:100F800004D084F82400EBE70220EAE7A16A40F6E7
:100F90000162914341F48071A1622168B94218D184
:100FA000326812F4702F14D0A16A41F48011A1624A
:100FB0003168490505D5A16A21F4005141F48051F9
:100FC000A162A16AC9040AD5E16A21F00601E162C1
:100FD00006E0A26A22F48012A2624968E9E7E062B0
:100FE00084F82400216A15488862216A1448C8627E
:100FF000216A1448086321686FF0020008602068C5
:10100000816841F480718160216843464A464C31D1
:10101000206A00F0B7FC20688168C1F342410729CB
:10102000816803D041F48011816099E741F4A00107
:10103000FAE700000024014000280140710A00087E
:10104000D90A0008BF0A000870472DE9F05F05467D
:10105000006800244669D0F804908768D0F80CB086
:10106000D0F810A0D0F81880F10748D0F90714D0B4
:1010700001218160B80703D5284600F0B5F90CE0DE
:10108000780702D54FF4006407E0380702D54FF423
:10109000805402E0284600F0A6F9F80516D5296824
:1010A0004FF480708860B80503D5284600F09EF99B
:1010B0000CE0780502D544F4005407E0380502D569
:1010C00044F4804402E0284600F08FF9F80316D576
:1010D00029684FF480308860B80303D5284600F0B3
:1010E00087F90CE0780302D544F4004407E03803A4
:1010F00002D544F4803402E0284600F078F9300745
:1011000007D55FEACB6004D52968102044F4007449
:10111000C86070074FF0080707D55FEA0B7004D569
:101120002868C760284600F059F9B00706D5286836
:10113000C068800702D0284600F051F9700607D534
:101140005FEACA6004D52968102044F4806408610D
:10115000B00607D55FEA0A7004D5286807612846FB
:1011600000F03EF9F00606D528680069800702D035
:10117000284600F036F9B00308D55FEAC96005D506
:10118000296810204860284600F02CF9F00307D5A4
:101190005FEA097004D528684760284600F029F9FD
:1011A000300446D55FEA497040D5F00504D55FEAC2
:1011B000C87001D044F00104B00504D55FEA88701E
:1011C00001D544F00204700504D55FEA487001D5EA
:1011D00044F00404300529D518F0700F26D008F02B
:1011E0007000402815D006DC102809D020280AD02D
:1011F000302816D10AE050280ED0602811D10EE018
:1012000044F008040DE044F010040AE044F0200427
:1012100007E044F0400404E044F0800401E044F4BA
:1012200080742868816921F0700181612968042037
:101230004860002C05D0686A204368622846FFF7A2
:1012400003FFBDE8F09F70B5040003D094F82000C0
:1012500010B104E0012070BD204600F081F8206844
:10126000016821F00201016000F0F2FC054605264C
:1012700004E000F0EDFC401B0A2811D8206840680B
:101280008007F6D42068016841F00101016000F098
:10129000DFFC05460BE000F0DBFC401B0A2806D90A
:1012A000606A40F40030606284F82060D2E7206811
:1012B0004068C007EFD0207E0128206801683DD03B
:1012C00021F080010160607E01282068016838D02B
:1012D00021F040010160A07E01282068016833D020
:1012E00021F020010160E07E0128206801682ED0F5
:1012F00041F010010160207F01282068016829D099
:1013000021F008010160607F01282068016824D075
:1013100021F004010160D4E902010843D4E9041278
:10132000114308436168491E08432168C8610020D1
:101330006062012084F82000002070BD41F080012F
:10134000C0E741F04001C5E741F02001CAE721F0C4
:101350001001CFE741F00801D4E741F00401D9E7DB
:1013600010B586B0002100910191029103910068AF
:10137000174988422AD11748C16941F00071C161FB
:10138000C16901F000710491816941F0040181613A
:101390008069114C00F0040004904FF4006000904C
:1013A0006946204600F046FBA01400900220019000
:1013B000032003906946204600F03CFB00221146C2
:1013C000142000F07FFF142000F06EFF06B010BD67
:1013D0000064004000100240000801407047704760
:1013E0007047704770477047704770477047704745
:1013F0007047704710B5040002D0607910B106E064
:10140000012010BD00202071204600F005F80120C9
:101410006071002010BD000008B5006806498842D0
:1014200008D10648416941F040014161406900F03E
:101430004000009008BD0000003002400010024053
:1014400070B54379012B20D001254571022303712A
:101450000668346802F0100340F6FE729A40944326
:10146000D1E900210A439A4022433260026814689D
:10147000C02199408C431460026813688B43136049
:10148000057100214171084670BD022070BD70B524
:10149000040003D02079002510B105E0012070BDC3
:1014A0006571204600F008F80220207125610120B6
:1014B0002071002070BD000000B585B000210091B2
:1014C00001910291039100680E49884218D10E489B
:1014D000C16941F00051C161C16901F0005104913D
:1014E000816941F0040181618069694600F004006E
:1014F00004903020009003200190044800F09AFAF4
:1015000005B000BD0074004000100240000801401A
:1015100018B5046800940068104421B1143000909C
:101520000360002018BD0830F9E770B54279012A40
:101530001ED001224271022303710468266801F063
:10154000100302FA03F52E4326600029016811D02A
:101550000C6804F470153C249C40A54203D14B68F0
:1015600043F002034B60027100214171084670BDD7
:10157000022070BD0B68C3F383030F2BF3D14B68BC
:1015800043F00103EEE700002DE9F05F90F8211031
:101590000024022903D004218163012485E001682D
:1015A0000A6822F00E020A6001680A6822F001024D
:1015B0000A603F4E3E4FB215DFF8F4C0DFF8F090FE
:1015C000DFF8ECA0DFF8E8B0DFF8E4E00168783F8E
:1015D00013011502ACF1640CA9F15009AAF13C0AFF
:1015E000ABF1280BAEF1140E4FF48018B14227D99D
:1015F000B9420ED0614512D049451DD0514518D091
:10160000594518D0714501D1424615E0294EB142E5
:1016100001D1012210E0274E1436B14201D110222F
:101620000AE0244E2836B14206D0224A3C3291428A
:1016300001D11A4600E02A461E49091F0A602BE024
:10164000B94213D0614517D0494522D051451DD02C
:1016500059451DD0714501D142461AE0B14202D12F
:101660004FF0807215E0134EB14201D1012210E01B
:10167000104E1436B14201D110220AE00D4E283628
:10168000B14206D00B4A3C32914201D11A4600E0E9
:101690002A46074980394A60012180F8211000213B
:1016A00080F82010416B01B188472046BDE8F09FCB
:1016B000800002400804024090F8210070470000BA
:1016C0002DE9F05FC16B0A6801680B68046C4FF08C
:1016D000040808FA04F8844D844E854FDFF814C2DC
:1016E000DFF81492DFF814A2DFF814B2DFF814E286
:1016F00018EA020F65D05FEA437862D50A6892065D
:1017000003D40A6822F004020A60DFF8F0814FF483
:101710008062016808F1140813011402414524D9BC
:10172000A9420DD0B1420FD0B9421AD0614515D0AF
:10173000494515D0514501D1120312E0594501D157
:1017400004220EE0714501D140220AE06D4D1435AE
:10175000A94206D06B4A2832914201D11A4600E0D4
:1017600022466749091F0A6029E0A94213D0B14205
:1017700015D0B94220D061451BD049451BD05145F9
:1017800002D14FF4800217E0414502D14FF0806250
:1017900012E0594501D104220EE0714501D14022E9
:1017A0000AE0584D1435A94206D0564A28329142D3
:1017B00001D11A4600E022464B4908394A60C16A05
:1017C00071E04FF0020808FA04F818EA020F70D02E
:1017D0005FEA83786DD50A68920606D40A6822F01B
:1017E0000A020A60012180F82110DFF810814FF40D
:1017F0000072016808F1140813011402414524D94C
:10180000A9420DD0B1420FD0B9421AD0614515D0CE
:10181000494515D0514501D1120312E0594501D176
:1018200002220EE0714501D120220AE0354D143527
:10183000A94206D0334A2832914201D11A4600E02B
:1018400022462F49091F0A6029E0A94213D0B1425C
:1018500015D0B94220D061451BD049451BD0514518
:1018600002D14FF4001217E0414502D14FF000724F
:1018700012E0594501D102220EE0714501D120222A
:101880000AE0204D1435A94206D01E4A2832914262
:1018900001D11A4600E02246134908394A60002166
:1018A00080F82010816A00291CD0BDE8F05F08474D
:1018B000FFE70825A540154214D01A0712D50A687B
:1018C00022F00E020A6090F84020C36B012101FA59
:1018D00002F25A60816380F82110002180F8201004
:1018E000016BE0E7BDE8F09F080002401C000240E9
:1018F0003000024044000240580002406C000240A8
:10190000080402401C04024030B560B11A4B026862
:1019100014219A4209D2194B1344B3FBF1F1890007
:10192000016417490AE0012030BD134B5B421344A8
:10193000B3FBF1F1890001640F490839C163022149
:1019400080F82110136843F6F0718B43F0E901141D
:101950002143D0E902452C432143046921434469D2
:10196000214384692143194311600021416301220D
:1019700042770177084630BD08040240F8FFFDBFFA
:101980000000024070B5044690F8200000250128B0
:101990000CD0012084F8200094F821600020012E52
:1019A00006D084F820000225284670BD022070BDB4
:1019B000022684F82160A0632068066826F00106EC
:1019C00006602046FFF7CEF8E06A0028206801682C
:1019D00002D041F00E0106E021F004010160206810
:1019E000016841F00A0101602068016841F00101CD
:1019F0000160D9E770B5044600F02AF90546601C7D
:101A000002D004480078044400F022F9401BA042B0
:101A1000FAD370BD1C00002070470000044910B5C7
:101A20000A68024202D00860FFF7F6FF10BD00000E
:101A3000140401402DE9F84FDFF8C891002409F1A2
:101A4000040A0AF1040B23460F270BF1040ED1E020
:101A50000125A54006EA0502AA4276D1DFF8A8C111
:101A60004E68A6EB0C0866452BD00DDC032E34D057
:101A700005DC36B3012E19D0022E2FD11BE0112E1A
:101A800016D0122E2AD119E0B8F5881F19D006DC1D
:101A9000B8F5803F15D0B8F5801F1FD111E0B8F51B
:101AA000001F0ED0B8F5041F18D10AE0CB6815E06E
:101AB000CB681B1D12E0CB6808330FE0CB680C33FA
:101AC0000CE08B682BB1012B4FF0080303D045616C
:101AD00004E0042302E0056100E00023FF2A01D8AE
:101AE000064601E000F104064FEA840501D9A5F19C
:101AF0002005D6F8008007FA05FC28EA0C0803FA4E
:101B000005F548EA0508C6F800804D68ED0070D577
:101B10003E4DAE6946F00106AE61AD6924F00306A4
:101B200005F0010500953A4D06EB050CDCF8085070
:101B3000A607360F07FA06F825EA0805DFF8D4806D
:101B4000404503D14FF0000825E052E0DFF8C8809F
:101B5000404502D14FF001081DE0DFF8C08040454C
:101B600002D14FF0020816E0DFF8B480404502D100
:101B70004FF003080FE0DFF8AC80404502D14FF092
:101B8000040808E0DFF8A080404502D14FF00508C6
:101B900001E04FF0060808FA06F848EA0508CCF814
:101BA00008804D68D9F80060ED034D4601D5164315
:101BB00000E096432E604D68DAF80060AD035546AC
:101BC00001D5164300E096432E604D68DBF80060B7
:101BD000ED025D4601D5164300E096432E604D6848
:101BE000DEF80060AD02754601D5164300E096436D
:101BF0002E60641C0A681646E2407FF429AFBDE8F7
:101C0000F88F000000040140000011100010024095
:101C10000000014000080140000C0140001001409C
:101C20000014014000180140001C01408068084079
:101C300000D001207047C26821EA02030A4043EA4B
:101C40000241016170470AB1016170470904FBE775
:101C500001488068704700001C00002070477047F2
:101C60002DE9F041016804464A694E6890F83E004B
:101C70000025D743FA050BD4F243D20508D46FF4FC
:101C8000807201254A6121680A6842F400420A60B4
:101C9000B90508D4F143C90505D422686FF4007171
:101CA00045F002055161790525D4F143C90522D4D7
:101CB000638D94F83D10226B202808D13BB921296F
:101CC00010D029290ED0282901D1212A0AD0226832
:101CD0006FF48061516145F00405102806D040285A
:101CE00004D008E0204602F00FF804E02068016804
:101CF00041F400710160380508D4F043C00505D4F3
:101D000021686FF4006045F008054861002D07D098
:101D1000206C284320642046BDE8F04101F092BCCD
:101D2000BDE8F0812DE9F041026800245168C76ADE
:101D300090F83E5090F83D60102D1CD0402D1AD0E8
:101D4000036C002B7ED053694FF02805DB439F07BF
:101D500079D4CF43BF0576D4016C01B1946990F872
:101D60003D3000219D430B466ED0C91E516180F865
:101D70003C30BDE8F081946953694FF42A0CDB4391
:101D80005FEAC37E4FF02A4604D06745F1D0B742E0
:101D9000EFD010E0CF43BF050DD4C16A614501D13A
:101DA000012103E0C16AB14201D10821C162BDE84D
:101DB000F04101F013BF1E0716D4CE43B60513D46D
:101DC000416CC9B21161416B11B9826B002AD0D04C
:101DD000896A19B9816B896A0029CAD0006841688B
:101DE00041F400614160C4E79E0706D4CE43B605C6
:101DF00003D4BDE8F04101F045BEE44352686407F6
:101E00004FEA02521BD4002AB3DB1A0608D4CA4395
:101E1000520505D45A0705D5BDE8F04101F0D6BDFD
:101E20005A07A6D4C9438905A3D4102D03D0BDE811
:101E3000F04101F019BFBDE8F04101F08DBD002A6D
:101E400097DB02E015E029E015E05A0608D4CA4302
:101E5000520505D45A0705D5BDE8F04101F008BD8B
:101E60005A0786D4C943890583D4BDE8F04101F0FF
:101E700095BC946967E7556825F480655560E24331
:101E8000540700D50121120601D5828900E0028B9A
:101E900080F83C3092B2FFF7E2FE6AE7DC0606D437
:101EA000CC43A40503D4BDE8F04101F06FBF212E5F
:101EB00027D0292E25D05C0655D4CC43640552D4B6
:101EC0005B0752D590F83D10438D002B8BD01269E3
:101ED000436A1A70426A521C4262428D521E428507
:101EE000428D002AD9D12A29D7D101684A6822F423
:101EF00080624A602221016380F83D5000F050F971
:101F000037E71C0623D4CC43640520D45B0720D5D7
:101F100090F83D10438D002BBFD0436A1B781361AE
:101F2000426A521C4262428D521E4285428D002AF4
:101F3000B3D12929B1D101684A6822F480624A608C
:101F40002121016380F83D5000F02BF911E75B0778
:101F5000A3D4C9438905A0D4418D00299DD0416AED
:101F6000097811610AE05B0797D4C943890594D4C5
:101F7000418D002991D01169426A1170416A491C52
:101F80004162418D491E4185F3E6704770B50400FA
:101F900025D094F83D00002520B984F83C50204617
:101FA00000F0BEF8242084F83D002068016821F08C
:101FB000010101602068016841F40041016020686E
:101FC000016821F40041016000F024FB4D4A616882
:101FD000914201D84C4900E04C49884201D201208D
:101FE00070BD4B492368B0FBF1F15E6826F03F06F7
:101FF0000E435E606368934206D94FF4967359436B
:102000004FF47A73B1FBF3F12368491C1E6A26F082
:102010003F06314319626168914210D84900401E61
:10202000B0FBF1F2521CC2F30B02042A01D20420CD
:1020300022E0B0FBF1F0401CC0F30B001CE0A268F2
:10204000F2B301EBC10303EB0116431EB3FBF6F33E
:102050005B1C43F480431B0549D092B301EBC102E2
:1020600002EB0111401EB0FBF1F0401CC0F30B006D
:1020700040F4804040F400402168CA694CF6FF7388
:102080009A431043C861D4E90710014320680268ED
:1020900022F0C00211430160D4E90301014320682A
:1020A000826848F2FF339A4311438160D4E9050105
:1020B00008432168CA6822F0FF021043C86001E0AB
:1020C0000EE016E02068016841F00101016025641E
:1020D000202084F83D00256384F83E50002070BD28
:1020E00001EB4106431EB3FBF6F35B1CB3E7012093
:1020F000C2E701EB4101401EB0FBF1F0401CC0F310
:102100000B00B7E7A086010080841E0000093D0097
:1021100040420F007047704770477047704700009B
:1021200010B586B0002100910191029103910068E1
:10213000184988422BD1184CA06940F00800A061D2
:10214000A069694600F0080004904FF440600090D8
:1021500012200190032003901048FFF76BFCE06908
:1021600040F48000E061E069002200F48000049007
:102170001146212000F0A6F8212000F095F8002259
:102180001146222000F09EF8222000F08DF806B0C3
:1021900010BD00000058004000100240000C01403B
:1021A0007047704770B5040011D021684CF6CC40E0
:1021B0000860216845F255500860D4E9000141608B
:1021C0002168A0688860FFF743FD054609E001200B
:1021D00070BD00BFFFF73CFD401B262801D903203E
:1021E00070BD2068C0680028F4D121684AF6AA2092
:1021F0000860002070BD0000024881680278114428
:10220000816070471C000020074810B5016841F04C
:1022100010010160032000F075F8002000F006F8BE
:1022200000F024F8002010BD0020024070B50D4DD4
:1022300004464FF47A712878B1FBF0F00A49096836
:10224000B1FBF0F000F0CCFB48B9102C07D2002213
:102250002146501E00F036F800206C6070BD012051
:1022600070BD00001C000020280000200C4808B5AC
:10227000816941F001018161816901F001010091F1
:10228000C16941F08051C161C06900F08050009087
:102290000448416821F0E06141F00071416008BDEF
:1022A0000010024000000140002809DB00F01F027E
:1022B000012191404009800000F1E020C0F80011A8
:1022C00070470000F0B40E4B1B680C46C3F30223AA
:1022D000C3F10705042D00D90425191D072901D2D2
:1022E000002300E0DB1E012606FA05F1491E21400D
:1022F00099409E40761E16403143F0BC02F00ABA67
:102300000CED00E0064900F0070208684FF6FF03F5
:10231000184040EA0220034A10430860704700005A
:102320000CED00E00000FA0510B52CA401461DCC10
:1023300086B08DE81D002DA02D4C00680490002073
:1023400004292FD00BDC01292FD0022928D100F03D
:1023500071F96168C1F38131491C49001EE0082907
:1023600020D010291CD161682268D20118D5C1F390
:102370008342C9031DF8020009D5616804AAC1F3AC
:102380004041515C1B4AB2FBF1F1484301E01A495C
:1023900048436168490203D440000321B0FBF1F0D7
:1023A00006B010BD00F056F9FAE7226AC2F3012127
:1023B000012903D1920701D5C803F1E7022905D10C
:1023C000626A920702D549F64040E9E70329E7D15E
:1023D00021688903E4D54FF22440E1E702030405B4
:1023E000060708090A0B0C0D0E0F10100102000061
:1023F0000010024000127A0000093D002DE9F84368
:1024000005460078354CC00754D0E0690026C0006E
:1024100008D4E06940F08050E061E069012600F0F6
:10242000805000902E480168C90512D4016880468A
:1024300041F480710160FFF70BFC074605E000BF27
:10244000FFF706FCC01B642823D8D8F80000C0059D
:10245000F6D5206A10F4407021D0A98801F44071AB
:1024600081421CD0206A1F49012220F440700A607A
:1024700000220A602062C00711D0FFF7E9FB07467F
:1024800041F2883808E000BFFFF7E2FBC11B41457D
:1024900002D90320BDE8F883206A8007F4D5206ABA
:1024A000696820F44070084320621EB1E06920F0A2
:1024B0008050E0612878800705D56068A96820F41D
:1024C0004040084360602878C00605D560686969A7
:1024D00020F48000084360600020DBE70010024029
:1024E00000700040400442422DE9F0470F460500CD
:1024F00061D0434E306800F00700B84209D230681E
:1025000020F0070038433060306800F00700B84220
:1025100051D128683B4C810712D5400703D560682C
:1025200040F4E06060602878000703D5606840F4FC
:10253000605060606068A96820F0F0000843606047
:102540002878C00728D06868012810D021680228A0
:1025500010D0890700292EDA616821F003010143B8
:102560006160FFF775FB804641F288390DE0216814
:102570008903EFE78901EDE7FFF76AFBA0EB0801AC
:10258000494502D90320BDE8F0876068696800F01A
:102590000C00B0EB810FEFD1306800F00700B842BB
:1025A0000BD9306820F0070038433060306800F005
:1025B0000700B84201D00120E5E72878400705D59B
:1025C0006068E96820F4E0600843606028780007EC
:1025D00006D56068296920F4605040EAC100606057
:1025E00000F038F86168084AC1F30311515CC84033
:1025F0000649086006480068FFF718FE0020C2E799
:102600000020024000100240E46E00082800002074
:10261000200000200448054900684968044AC1F3C5
:102620000221515CC8407047280000200010024081
:10263000F46E00080448054900684968044AC1F37B
:10264000C221515CC84070472800002000100240A1
:10265000F46E000812A185B00FC98DE80F0014A018
:10266000144A006804905168134801F00C03042BCD
:1026700010D0082B0ED1C1F38343C9031DF803000A
:102680000AD5516804AAC1F34041515C0A4A50433B
:10269000B0FBF1F005B0704708494843FAE7000085
:1026A00002030405060708090A0B0C0D0E0F101093
:1026B000010200000010024000127A0000093D00F3
:1026C0002DE9F84F040070D02078C04DC00749D0E4
:1026D0006868C0F38100012807D06868C0F38100F2
:1026E000022809D16868C00306D52868800339D557
:1026F00060680028E7D035E06068B0F5803F0BD017
:1027000010B1B0F5A02F11D0286820F480302860D7
:10271000286820F4802002E0286840F48030286097
:10272000606890B1FFF794FA06460AE0286840F422
:1027300080202860F0E700BFFFF78AFA801B64283A
:1027400073D828688003F7D50CE0FFF781FA0646B6
:1027500005E000BFFFF77CFA801B6428F0D82868EA
:102760008003F7D420789A4E80074FF001094FF08C
:10277000000839D5686810F00C0F07D06868C0F3FE
:102780008100022809D16868C00306D42868800740
:1027900014D52069012808D110E02069B0B1C6F82D
:1027A0000090FFF755FA074605E00AE1FFF750FAF7
:1027B000C01B0228C4D828688007F7D5286861693B
:1027C00020F0F80040EAC10028600DE0C6F8008063
:1027D000FFF73EFA074604E0FFF73AFAC01B02286B
:1027E00023D828688007F7D4207800072CD57948AB
:1027F000A169D9B1C0F80090FFF72AFA074604E0B2
:10280000FFF726FAC01B02280FD8686A8007F7D5A1
:1028100071484FF4FA510068B0FBF1F0009000BF2E
:102820000098411E0091FAD20EE080E0C0F80080CE
:10283000FFF70EFA074604E0FFF70AFAC01B02286A
:1028400075D8686A8007F7D42078400760D5E869B2
:102850000027C00008D4E86940F08050E861E869CA
:10286000012700F0805000905C480168C90513D42E
:102870000168834641F480710160FFF7E9F98246FF
:1028800006E000BFFFF7E4F9A0EB0A0064284ED889
:10289000DBF80000C005F5D5E06801280AD008B1D2
:1028A000052813D0286A20F001002862286A20F049
:1028B000040002E0286A40F001002862E06841F26A
:1028C000883B98B1FFF7C4F982460BE0286A40F0D4
:1028D00004002862EEE700BFFFF7BAF9A0EB0A0197
:1028E00059455AD8286A8007F6D50CE0FFF7B0F9A9
:1028F000824605E0FFF7ACF9A0EB0A0159454CD838
:10290000286A8007F6D41FB1E86920F08050E8619A
:10291000E06988B36968C1F38101022944D00228C3
:10292000C6F8608004D0FFF793F9044638E034E03D
:10293000FFF78EF9074604E0FFF78AF9C01B02286B
:102940002BD828688001F7D4206AB0F5803F05D1E4
:102950006868A16820F4003008436860D4E9080181
:102960000843696821F4741108436860C6F86090F0
:10297000FFF76EF9044606E025E000BFFFF768F9AF
:10298000001B022809D828688001F7D51BE000BF8A
:10299000FFF75EF9001B022802D90320BDE8F88F7B
:1029A00028688001F4D40EE00128F7D06868226A14
:1029B00000F48031914204D1616A00F470108842C1
:1029C00001D00120EAE70020E8E700000010024003
:1029D0000000424280044242280000200070004073
:1029E00010B5401EB0F1807F01D3012010BD4FF023
:1029F000E02460610F21601701F08CFE0020A061CF
:102A000007202061002010BD7047704770B590F816
:102A10003C20012A2CD0012480F83C40022280F87E
:102A20003D2003685A689D6822F070060A683243A8
:102A30005A60104B02689A420ED00F4B9A420BD04C
:102A4000B2F1804F08D00D4B9A4205D00C4B9A4200
:102A500002D00C4B9A4204D1496825F080031943F7
:102A6000916080F83D40002180F83C10084670BD20
:102A7000022070BD002C01400034014000040040E1
:102A800000080040000C004010B5040003D094F88A
:102A90003D0010B107E0012010BD002084F83C008B
:102AA000204600F01FF8022084F83D00211D206818
:102AB00001F090FC012084F8460084F83E0084F880
:102AC0003F0084F8400084F8410084F8420084F814
:102AD000430084F8440084F8450084F83D00002059
:102AE00010BD000008B501682F48B1F1804F11D02A
:102AF0002E4A91421DD1C16941F00401C161C069F2
:102B0000002200F00400009011461E20FFF7DAFBBF
:102B10001E2043E0C16941F00101C161C06900228A
:102B200000F00100009011461C20FFF7CBFB1C2099
:102B300034E01F4A91420ED1C16941F00801C161E0
:102B4000C069002200F00800009011463220FFF713
:102B5000B9FB322022E0174A91420ED1C16941F0FF
:102B60001001C161C069002200F010000090114600
:102B70003620FFF7A7FB362010E00F4A914211D113
:102B8000816941F4005181618069002200F40050A4
:102B9000009011462C20FFF795FB2C20BDE8084043
:102BA000FFF782BB08BD0000001002400008004093
:102BB000000C0040001000400034014090F83D102F
:102BC000012901D001207047022180F83D100168E1
:102BD000CA6842F00102CA6000680E4988420ED0FD
:102BE0000D4988420BD0B0F1804F08D00B49884284
:102BF00005D00B49884202D00A49884204D1816835
:102C000001F00701062903D0016841F001010160CC
:102C100000207047002C01400034014000040040B7
:102C200000080040000C004070B5044690F83C00DD
:102C3000012817D0012584F83C50022084F83D007B
:102C40002068826822F0770222F47F42826008685E
:102C5000502830D00DDC20284DD005DC98B310284A
:102C60003BD148E0022070BD302844D0402834D108
:102C700039E0602828D0702806D0B0F5805F2CD0CD
:102C8000B0F5005F29D10AE0CB68D1E901212068C5
:102C900001F0F3FB2068816841F0770109E0CB681F
:102CA000D1E90121206801F0E8FB2068816841F446
:102CB0008041816011E0CA684968206801F0EFFB3B
:102CC0005021206807E016E0CA684968206801F0D2
:102CD000F7FB6021206801F0DAFB84F83D5000200A
:102CE00084F83C0070BDCA684968206801F0D7FBD1
:102CF00040212068EFE7226801461046EBE72DE906
:102D0000F0410D46040003D094F83D0018B108E0EE
:102D10000120BDE8F081002084F83C00204600F04E
:102D200041F8022084F83D002068816844F20702DF
:102D300091438160211D206801F04CFB226890685E
:102D40009169166A2B68AF69034340F203308143EF
:102D500041EA0721A868EF6908434FF6FC41884320
:102D6000E96840EA0720014328692F6A000140EA28
:102D70000730084369686D6926F0220646EA0515A2
:102D8000294393602268906154F8460B0162012048
:102D900004F81F09E0752076E0762077A075002002
:102DA000B7E7000000B585B00021009101910291C4
:102DB000039100681749884229D11748C16941F039
:102DC0000201C161C16901F002010491816941F010
:102DD000100181618069694600F010000490C020F4
:102DE0000090012002900D48FEF724FE0C48416837
:102DF00021F4406141F0E06141F440614160002212
:102E000011461D20FFF75EFA1D20FFF74DFA05B0B1
:102E100000BD00000004004000100240001001400E
:102E20000000014070B590F83E60044690F83F50B5
:102E300090F8423090F84320022021B104290ED0AE
:102E4000012E1BD114E0012E18D1012B16D184F8CC
:102E50003E0084F8420001220021206820E0012D7C
:102E60000CD1012A0AD184F83F0084F8430014E011
:102E7000012D03D1012B01D1012A01D0012070BD08
:102E800084F83E0084F83F0084F8420084F8430050
:102E900001220021206801F0E3FA012204212068C8
:102EA00001F0DEFA2068016841F0010101600020B4
:102EB00070BD704770B50446006801694FF00005A9
:102EC000C943890715D4C168C943890711D4E91ECC
:102ED000016101202077206880698007204602D0A8
:102EE000FFF7E7FF04E000F098F8204600F096F8BE
:102EF000257720680169C943490717D4C168C943C8
:102F0000490713D46FF00401016102202077206883
:102F1000806910F4407F204602D0FFF7CAFF04E02A
:102F200000F07BF8204600F079F8257720680169E9
:102F3000C943090716D4C168C943090712D46FF001
:102F400008010161042020772068C06980072046BD
:102F500002D0FFF7AEFF04E000F05FF8204600F07B
:102F60005DF8257720680169C943C90617D4C1688F
:102F7000C943C90613D46FF01001016108202077FE
:102F80002068C06910F4407F204602D0FFF791FF0F
:102F900004E000F042F8204600F040F82577206871
:102FA0000169C943C90708D1C168C943C90704D128
:102FB000891E0161204600F033F820680169C94389
:102FC000090609D4C168C943090605D46FF0800118
:102FD00001612046FFF718FD20680169C9434906D1
:102FE00009D4C168C943490605D46FF040010161A5
:102FF000204600F073F820680169C94389060BD4A4
:10300000C168C943890607D46FF0200101612046D9
:10301000BDE87040FFF7F9BC70BD70477047000015
:1030200070B5064600680124224DB0F1804F04D1EE
:103030002149224803F080FA6C8021493068884297
:103040000AD11E484FF6E8528189491C89B2818114
:10305000914201D9002181811A493068884200D10A
:10306000AC801949884200D1EC801849884200D1CF
:103070002C81174988421BD12C80164CC113204645
:10308000FEF7D9FD05220C491348FDF757FF0A4802
:1030900002F0D8F9012211462046FEF7D4FD03F0D4
:1030A0002BFB2046BDE8704000220121FEF7CBBD7E
:1030B00070BD0000000000205801002044010020E5
:1030C000000400400034014000080040000C0040B3
:1030D0000010004000100140400F00207047704772
:1030E00070B5026804461068D168536910F00F0F7C
:1030F00052D003F0010501F490762E435FD0C20751
:1031000005D0CA0503D5E26B42F00102E263420733
:1031100005D5DA0703D0E26B42F00202E2638207D0
:1031200005D5DA0703D0E26B42F00402E26302073E
:1031300007D501F020022A4303D0E26B42F00802D7
:10314000E263E26B002A33D0800604D5880602D5FC
:10315000204601F0E9F920684069E16BC0F3801076
:10316000090700D428B3204601F0D0F9206841694E
:1031700049061AD5416921F040014161606BA0B157
:103180002D494163606BFEF7FFF9002810D0606B9A
:10319000416BBDE870400847830610D58B060ED5FD
:1031A0002046BDE8704001F0BFB92046FFF797FF09
:1031B00070BD2046FFF793FF0020E06370BD03065B
:1031C0002BD50B0629D594F839002128F6D1A06813
:1031D000B0F5805F01D12069B0B1206A411C216245
:1031E000216800784860E08C401E0004000CE084F8
:1031F000E4D12068C16821F08001C1602068C16805
:1032000041F04001C16070BD206A0088C0F3080031
:103210005060206A801C2062E5E74006F3D548062E
:10322000F1D5D168204621F04001D160202184F8F9
:10323000391000F09AF970BDFD44000870B5040023
:1032400004D094F83900002510B106E0012070BDCB
:1032500084F83850204600F023F8242084F8390000
:103260002068C16821F40051C160204601F0A2F934
:103270002068016921F4904101612068416921F0D1
:103280002A0141612068C16841F40051C160E563D1
:10329000202084F8390084F83A00002070BD000036
:1032A000F0B585B000240094019402940394464D37
:1032B00006684649022203234548AE4226D1CD691D
:1032C00045F40025CD61CD6905F4002504958D698F
:1032D00045F010058D618969039301F01001049197
:1032E0000115CDE9001269460546FEF7A3FBF0146F
:1032F000CDE90004694628460294FEF79BFB0022B4
:1033000011463420FEF7DEFF34202FE0314F042534
:10331000BE422FD1CE6946F48016CE61CE6906F446
:10332000801604968E6946F010068E618E6906F04E
:10333000100604968E6946F020068E618969039313
:1033400001F020010491A902CDE900126946FEF7BF
:1033500071FBCDE9005469461F480294FEF76AFBF1
:10336000002211463520FEF7ADFF3520FEF79CFF09
:1033700005B0F0BD19488642FAD1C86940F4003062
:10338000C861C86900F400300490886940F0040006
:1033900088618869CDE9005200F00400CDE903306E
:1033A0000F4D69462846FEF745FB0820CDE900048D
:1033B000694628460294FEF73DFB0022114626206E
:1033C000FEF780FF2620D1E7004C004000100240AD
:1033D0000010014000500040001401400044004033
:1033E0000008014090F83A30202B22D1F9B1F2B117
:1033F00090F83830012B1CD081628285C285002173
:10340000C163222280F83A2080F838100168CA6827
:1034100042F48072CA6001684A6942F001024A615E
:103420000068C16841F02001C160002070470120A0
:10343000704702207047000010B504460068164926
:10344000884209D10221154803F0A6FC1349012244
:10345000DC311348FFF7C6FF12492068884209D1C2
:103460000E480421E43003F097FC01220E490F4876
:10347000FFF7B8FF0E49206888420CD10A480521A1
:10348000083003F089FC08490122BDE81040E4310E
:103490000848FFF7A7BF10BD0044004044060020C5
:1034A0003C120020004C004004080020BC11002009
:1034B00000500040FC1100202DE9F843044690F82C
:1034C00039001F4616460D4620284CD1C5B1BEB165
:1034D00094F83800012846D0012084F838004FF0D5
:1034E0000008C4F83C80212084F83900FEF7B0FBC6
:1034F000A6848146E684A068B0F5805F03D004E02E
:103500000120BDE8F883206928B12E465FF0000550
:1035100084F838800EE00026FAE78021204601F08A
:10352000A5F8A0B9AEB116F8010B21684860E08C8F
:10353000401EE084E08C4B464FF0000200970028CC
:10354000EBD14FF04001204601F090F830B103205C
:10355000D7E735F8020BC0F30800E6E7202084F82F
:1035600039000020CDE70220CBE77047FEE70000DE
:103570000148FEF775BB0000AC0F00200148FEF7C4
:10358000D1BB0000AC0F002038B5406A002190F894
:103590003D202B4B46F2A8141B68B3FBF4F3C3EB9E
:1035A000C30303EB830300933BB15B1E00930368EB
:1035B0001B689B0505D5009BF6E7036C43F02003D1
:1035C0000364436B03B19962836B03B1996203682F
:1035D0001C6824F480641C604185436B03B159630B
:1035E000836B03B1596303681C6824F001041C60F9
:1035F00090F83D402023602C0BD0282434EA0202AE
:103600000FD080F83D3080F83E1000BFFEF7BDFCC3
:1036100038BD80F83D3080F83E100164FEF71EFB97
:1036200038BD0268136843F0010313600268136831
:1036300043F480631360016380F83D40E6E70000D7
:103640002800002070B5044690F83D0094F83E1024
:10365000102901D0402906D1222804D121680A6806
:1036600022F400620A60282131EA00024FF00005CE
:103670004FF0200626D021684968090505D4602846
:1036800003D084F83D6084F83E502563206841688B
:10369000090537D5416821F400614160606B3D49FF
:1036A00090F82120012A11D04163606BFDF76CFF77
:1036B00038B32068016821F00101016084F83D60A1
:1036C000606B1CE0256384F83D10DFE7A06B41636D
:1036D000A06BFDF759FFA0B120684169C9434906B5
:1036E00005D40069616A0870606A401C60622068E5
:1036F000016821F00101016084F83D60A06B416B1D
:10370000884710E094F83D10602910D04169C94302
:10371000490605D40069616A0870606A401C6062ED
:103720002046FEF732FC206CC1071CD115E084F85E
:103730003D6025644169C943490605D40069616A51
:103740000870606A401C60622068016821F0010115
:1037500001602046FEF782FAE5E7810703D44107BE
:1037600001D4000704D52068416821F4E06141607C
:1037700094F83D00216C49070BD5282809D106484B
:10378000E062256384F83D6084F83E502046FEF7F1
:10379000C1FC70BD893500080000FFFF10B5C26A8A
:1037A000438D0168042B06D0438D032B08D0438D35
:1037B000022B1DD012E04A6822F480624A600CE0BD
:1037C0004B6823F480634B60042A06D0022A04D09D
:1037D00001680A6822F480620A6001680969426A25
:1037E0001170416A491C4162418D491E418510BDDD
:1037F000012A30D0102A2ED0042A30D0022A2ED00E
:103800000A6842F400720A6001680969426A11702C
:10381000416A491C4162428D521E4285026812690A
:103820000A70416A491C4162418D491E4185016807
:103830004A6822F440724A60202180F83D1090F8D6
:103840003E200021402A80F83E100CD01221016356
:10385000FEF761FC10BD0A6822F48062D3E70A68B3
:1038600042F48062CFE70163FEF757FC10BD000011
:1038700038B590F83D10222914D1418D032912D971
:1038800001680969426A1170416A491C4162418DAF
:10389000491E4185418D032904D10068416821F406
:1038A0008061416038BDC26A022AFBD0012901D083
:1038B0000029F7D1274946F2A81300220968B1FB75
:1038C000F3F101EB8101009101682023009C641E4B
:1038D000009422D00C68A405F8D40C6824F4806409
:1038E0000C6001684C6824F4E0644C60016809696C
:1038F000446A2170416A491C4162418D491E4185DB
:1039000080F83D3090F83E1080F83E2040291DD0D0
:1039100012210163FEF7FFFB38BD046C44F0200464
:1039200004644C6824F4E0644C6001680969446AEA
:103930002170416A491C4162418D491E418580F8D0
:103940003D3080F83E20FEF720FB38BD0263FEF7D5
:10395000E4FB38BD2800002010B5C16A90F83D2076
:10396000212A0BD1428D52B1416A02680978116156
:10397000416A491C4162418D491E418510BD0022AA
:103980002023082910D020290ED011F5803F0BD01C
:1039900001684C6824F4E0644C601121016380F8F4
:1039A0003E2080F83D300EE001684C6824F4E0646D
:1039B0004C6001680C6844F400740C60026380F889
:1039C0003D3080F83E20FEF7A7FB10BD10B590F803
:1039D0003D1090F83E30C26A048DB4B1212903D065
:1039E000402B11D122290FD1418DE1B390F83E1027
:1039F000402942D0416A026809781161416A491C34
:103A00004162418D491E418510BD2129E8D1202305
:103A10000021082A13D0202A11D012F5803F0ED0A1
:103A20000268546824F4E06454601122026380F850
:103A30003E1080F83D3000BFFEF76EFB10BD0268FF
:103A4000546824F4E06454600268146844F4007418
:103A50001460016380F83D3090F83E2080F83E10FD
:103A6000402AE9D100E002E0FEF758FB10BD0068F3
:103A7000416821F48061416010BDBDE8104000F054
:103A8000F3B8000078B590F83E50C26A046B90F825
:103A90003D6000230168222E73D1066D0EB9402DC2
:103AA0006FD0056D1DB90569B5F5404F1BD0458D2B
:103AB00095B3468D484D012E20D0448D022C4DD01B
:103AC0000C6844F480640C6001684C68240579D566
:103AD000AA4273D0012A71D0082A6FD0102A6DD063
:103AE000202A6BD06EE04A698A6900920A6842F423
:103AF00080720A60016D491C016578BDAA4214D12B
:103B00000A6822F480620A6001684A68120504D5D6
:103B10000A6822F4806217E0FFE74A698A69009226
:103B20000A6842F400720A6050E0082A10D0202A85
:103B30000ED0122C0AD0042A03D0022A01D0102A57
:103B4000E6D10A6842F480620A603BE0012ADFD0D5
:103B50000A6822F480620A600168DEE7042A11D054
:103B6000022A0FD0102A0DD00C6844F400640C60B7
:103B700001684C698C6900940C6824F480640C60C2
:103B800008E025E00C6844F480640C6001684C692E
:103B90008969009101684C68240517D5AA4207D0AD
:103BA000012A05D0082A03D0102A01D0202A0DD1DD
:103BB0004A6842F480524A6008E0FFE74A6842F4EB
:103BC00080524A6001684A6989690091036578BD3D
:103BD00048698869009078BD0000FFFF90F83E10AA
:103BE000402910D00169B1F5804F19D0016DA9B3FA
:103BF000016D012910D1416C5FF0F10201F44071B7
:103C000042EAD11106E0016D0029416C05D0C9B22C
:103C100041F0010100680161704701F0FE01F9E720
:103C200090F83D102129416C09D0C9B241F0010141
:103C300002681161416B29B1896A49B902E001F05A
:103C4000FE01F5E7816B0029E6D0896A0029E3D0FF
:103C50000068416841F4006141607047FFE7416CD2
:103C6000F02201F44071CBE710B590F83D10026DE1
:103C700022B3026D012A2FD0026D022A1DD1222902
:103C800031D0428D0AB1212933D0428D002A14D17E
:103C9000212912D101684A6822F4E0624A60016871
:103CA0000A6842F400720A6000210163202280F851
:103CB0003D2080F83E10FEF731FA10BDC16C01299D
:103CC000816C02D0C1F3072108E00268C9B211611A
:103CD000016D891C016510BD816CC9B2026811615A
:103CE000016D491CF6E70068016841F480710160CC
:103CF00010BD416A026809781161416A491C41623C
:103D0000418D491E418510BD2DE9F04190F83D409F
:103D1000C26A002320261C4F01686FF48065082AC0
:103D200001D0202A01D1282C04D0212C16D04D619D
:103D3000BDE8F081C7624A6822F4E0624A60016827
:103D40004D6101680A6822F480620A60036380F8AA
:103D50003D6080F83E30FEF7DDF9E9E7C7622122D9
:103D6000026380F83D6080F83E304A6822F4E062E9
:103D70004A6001684D6101680A6822F480620A6045
:103D8000FEF70FFAD4E700000000FFFFF8B590F847
:103D90003D6004460068416821F4E06141602068AC
:103DA000002541690091016841F00101016020682E
:103DB000016821F48061016020684168090520D50F
:103DC000474F222E48D02A2E46D0616B0968496899
:103DD0006185618D19B1216C41F004012164416854
:103DE00021F400614160606BFDF766FC012808D09A
:103DF000606B4763606BFDF7C7FB10B1606B416B95
:103E00008847608D08B320684169C943490708D4D1
:103E10000069616A0870606A401C6062608D401EC3
:103E2000608520684169C943490608D40069616A10
:103E30000870606A401C6062608D401E6085608D05
:103E400018B1206C40F004002064206C00B32046C0
:103E5000BDE8F840FFF7F6BBA16B096849686185CA
:103E6000618D19B1216C41F004012164416821F494
:103E700000614160A06BFDF71FFC0128C1D0A06B61
:103E80004763A06BFDF780FB0028BAD0A06BB6E7B4
:103E90002A2E06D12563282084F83D002046FEF70F
:103EA0007FF994F83D10202028290DD0216B22297C
:103EB00001D0222E07D1256384F83D0084F83E50BE
:103EC0002046FEF76DF9F8BD0649E162256384F8E6
:103ED0003D0084F83E502046FEF71CF9F8BD000076
:103EE000893500080000FFFFFEB500242648009435
:103EF000019424490294016089158160047304755A
:103F0000052505614FF460214460C161FCF72CFF79
:103F100008B172B6FEE70126CDE9004669461A48A7
:103F20000294FCF79FFE08B172B6FEE70220CDE9CD
:103F3000006069461448FCF795FE08B172B6FEE7CA
:103F4000062000900320019069460F48FCF78AFE86
:103F500008B172B6FEE70720009004200190694680
:103F60000948FCF77FFE08B172B6FEE70E20CDE9E6
:103F7000000569460448FCF775FE002801D072B6BA
:103F8000FEE7FEBD00240140400F00200E4810B5A2
:103F90000C4901601021416000214FF40032816022
:103FA000C0E9031252014261017601224276827613
:103FB000C17601774177FDF746F9002801D072B646
:103FC000FEE710BD00640040700F00202DE9F04FA7
:103FD00085B000243E4800940194029403948169C2
:103FE00041F010018161816901F010010491816942
:103FF00041F020018161816901F020010491816912
:1040000041F004018161816901F004010491816939
:1040100041F0080181618069DFF8B89000F0080084
:1040200048F22F250490002229464846FDF70BFE52
:10403000DFF8A4B041F20307002239465846FDF7E5
:1040400002FEDFF898A04FF4004800224146504697
:10405000FDF7F9FD0095022601250396CDE90154EF
:1040600069464846FDF7E6FC00970396CDE9015402
:1040700069465846FDF7DEFC042000901848CDE95B
:10408000010569465846FDF7D5FC28028DE8310048
:1040900069464846FDF7CEFCCDF800800396CDE991
:1040A000015469465046FDF7C5FC4FF47E708DE81B
:1040B000310069465846FDF7BDFC00221146082034
:1040C000FEF700F90820FEF7EFF805B0BDE8F08F25
:1040D0000010024000100140000C014000080140A7
:1040E0000000211010B586B00024174800940194F8
:1040F0000294039404944FF08041059401600921D7
:10410000C0E901144FF6FF11C0E903148021816159
:10411000FEF7BAFC08B172B6FEE74FF4805000908B
:1041200069460948FEF780FD08B172B6FEE70494BF
:1041300004A905480594FEF769FC002801D072B671
:10414000FEE706B010BD00000C10002010B58CB0CA
:1041500024216846FCF71FF80024174809941549E4
:104160000A94C0E9001440F29F51C0E90241802145
:10417000046181610320CDE900040120CDE902043E
:104180000A210491CDE90540CDE9074169460A4875
:10419000FEF7B5FD08B172B6FEE7099409A9064815
:1041A0000A94FEF733FC002801D072B6FEE70CB08B
:1041B00010BD0000000400405410002010B586B06F
:1041C0000024174800940194029403940494134922
:1041D000059401606321C0E901144FF6FF11C0E9A5
:1041E000031480218161FEF74FFC08B172B6FEE72F
:1041F0004FF48050009069460948FEF715FD08B15C
:1042000072B6FEE7049404A905480594FEF7FEFB88
:10421000002801D072B6FEE706B010BD00080040CD
:104220009C10002010B586B000241848009401941A
:1042300002940394049414490594016040F2E73118
:10424000C0E901144FF6FF11C0E903148021816118
:10425000FEF71AFC08B172B6FEE74FF480500090EA
:1042600069460A48FEF7E0FC08B172B6FEE704941E
:1042700004A906480594FEF7C9FB002801D072B6D0
:10428000FEE706B010BD0000000C0040E410002066
:1042900010B586B000241848009401940294039449
:1042A00004941449059401601321C0E901144FF6E8
:1042B000FF11C0E903148021C0E90541FEF7E4FBCA
:1042C00008B172B6FEE74FF48050009069460A4884
:1042D000FEF7AAFC08B172B6FEE7049404A90648EA
:1042E0000594FEF793FB002801D072B6FEE706B0F6
:1042F00010BD00000034014074110020FEE7FEE70D
:1043000070477047FDF778BF30B595B028216846F3
:10431000FBF741FF14210AA8FBF73DFF18210FA866
:10432000FBF739FF0920012100904FF48030002570
:1043300004910691CDE901050224CDE907404FF42F
:10434000C01009906846FEF7BBF908B172B6FEE7E7
:104350000AA90F2081E831004FF480600D900E9083
:1043600002210AA8FEF7C0F808B172B6FEE74FF4C2
:10437000804011900F940FA8FEF740F8002801D05C
:1043800072B6FEE715B030BD704700000148FEF779
:1043900091BD00000C1000200148FEF78BBD00000D
:1043A000541000200148FEF785BD00009C1000203D
:1043B0000148FEF77FBD0000E41000200148FEF731
:1043C00079BD00002C1100200148FEF773BD0000EC
:1043D00074110020F0B502681C4B1D4D1D4E1E4F80
:1043E0001E4C4FF0804C984209D0A04207D0604547
:1043F00005D0A84203D0B04201D0B84204D122F087
:10440000700E4A6842EA0E02984209D0A04207D0D4
:10441000604505D0A84203D0B04201D0B84203D1D4
:1044200022F44075CA682A434D6922F080022A436B
:1044300002608A68C2620A688262984201D0A04221
:1044400001D10969016301214161F0BD002C0140E6
:104450000004004000080040000C0040003401400F
:1044600010B501F01F030121046A99408C430462D6
:10447000016A9A401143016210BD10B5846842EA96
:10448000032224F47F440A432243826010BD8268E1
:1044900022F070020A4342F007018160704710B5B4
:1044A000036A046A24F001040462846924F0F004BD
:1044B00044EA021423F00A020A438461026210BD36
:1044C00010B5036A23F0100303628369046A23F4BE
:1044D000704343EA023224F0A00343EA01118261EF
:1044E000016210BD0148FEF7FBBD0000BC110020B9
:1044F0000148FEF7F5BD0000FC11002010B5406A30
:104500000021C185C184FEF7EAFD10BD0168CA68BB
:1045100022F49072CA6001684A6922F001024A617D
:10452000202180F83A10704710B590F83A102229EF
:1045300001D0022010BD82684FF480539A4201D10D
:10454000016921B1816A9A421BD04AB10AE002682E
:10455000816A5268C2F308020A80816A891C08E0F5
:10456000026972B10268526802F07F020A70816AC1
:10457000491C8162C18D491E0904090CC18503D003
:1045800016E002685268F1E70168CA6822F020026A
:10459000CA600168CA6822F48072CA6001684A6908
:1045A00022F001024A61202180F83A10FEF744FF10
:1045B000002010BD70B5044600680169E26821F46E
:1045C0004051114301612169A068084361690843B2
:1045D0002168CA6841F20C639A430243CA602068AA
:1045E0004169A26921F44071114341611E4920686B
:1045F000884202D1FEF71EF801E0FEF70BF800EB4F
:10460000C00101EB0012606864218000B2FBF0F38E
:10461000B3FBF1F36FF018067343B2FBF0F5B2FB96
:10462000F0F605EB8305322303EB0515B5FBF1F539
:10463000B6FBF1F605F0F00505EB0615B2FBF0F65A
:10464000B2FBF0F0B0FBF1F06FF01802504306EB54
:10465000800003EB0010B0FBF1F0216800F00F00C8
:104660002844886070BD0000003801402DE9F04109
:10467000984617460E460446069D1DE0681C1BD052
:104680002DB1FDF7E5FAA0EB0800A84214D9206887
:10469000C16821F4D071C1602068416921F0010135
:1046A0004161202084F8390084F83A00002084F821
:1046B00038000320BDE8F0812068006836EA000079
:1046C00004D00020B842D9D00020F3E70120F9E758
:1046D0000148FEF705BD00003C1200200148FCF730
:1046E000B4BC0000700F0020FEE700000FB4084BC0
:1046F00010B504A902AA039800F02CF8044602A9F8
:10470000002000F0C8F9204610BC5DF814FB000042
:10471000974A00080907090E002804DB00F1E02091
:1047200080F80014704700F00F0000F1E02080F8DE
:10473000141D704702E008C8121F08C1002AFAD1F0
:1047400070477047002001E001C1121F002AFBD111
:10475000704700002DE9FF4F8BB0884605460026C4
:1047600006E025280BD0DDE90D1290476D1C761C64
:1047700028780028F5D10FB03046BDE8F08F00242E
:10478000A146A2460122AE4900E0044315F8013FCC
:10479000203B02FA03F00842F7D128782A2810D0EB
:1047A0006FF02F022878A0F13001092915D809EB04
:1047B000890102EB410144F0020400EB01096D1C88
:1047C000F0E758F8041B5FEA010903D544F40054EC
:1047D000C9F1000944F002046D1C28782E2817D175
:1047E00015F8010F44F004042A280ED06FF02F02B0
:1047F0002878A0F1300109290AD80AEB8A0102EBD6
:10480000410100EB010A6D1CF2E758F804AB6D1C86
:1048100028786C280FD006DC4C2817D068280DD0DB
:104820006A2814D104E0742810D07A280FD10DE042
:1048300044F400140AE044F4801401E044F4401409
:104840006978814202D104F580146D1C6D1C2878B2
:10485000692865D006DC00288DD0632827D064281D
:1048600006D15DE06E2808D073282AD0752877D04D
:10487000DDE90D129047761CE0E0C4F302500228F7
:1048800009D003280DD0D8F8001004280DD00E60F0
:1048900008F10408D2E0D8F80010F217C1E900626C
:1048A000F6E7D8F800100E80F2E70E70F0E718F87F
:1048B000041B8DF8001000208DF80100EB4601204C
:1048C00003E058F804BB4FF0FF3061074FF00007DA
:1048D00001D40AE07F1C57450DDA8742FADB1BF84A
:1048E00007100029F6D106E07F1C8742FCDB1BF88D
:1048F00007100029F8D1DDE90D23A9EB0700814657
:10490000214600F0B1F83044C61904E0DDE90D128B
:104910001BF8010B90477F1EF8D22146484688E0DD
:1049200058F8040BC4F302514FF00A0B032900D1CD
:1049300000B2042900D140B2002802DA40422D2101
:1049400002E0210505D52B218DF82410012104E07A
:1049500006E0E10710D02021F6E708AF089113E048
:1049600058F8040BC4F302514FF00A0B032900D18D
:1049700080B2042900D1C0B20021EEE75946FBF70E
:1049800073FF303107F8011D0028F7D1ADEB0700A8
:1049900000F1200B600702D524F4803401E04FF0D1
:1049A000010ADA4502DDAAEB0B0000E00020824696
:1049B00000EB0B0108980144A9EB01000A90E00309
:1049C00006D4DDE90D2321460A9800F04DF806448F
:1049D0004FF0000908E009A911F80900DDE90D12FE
:1049E000904709F10109761C08998945F3DBE0033A
:1049F0000CD5DDE90D2321460A9800F035F8064470
:104A000004E0DDE90D1230209047761CBAF1000178
:104A1000AAF1010AF5DC05E0DDE90D1217F8010B3A
:104A20009047761CBBF10001ABF1010BF4DC0A9856
:104A30002146DDE90D2300F005F806446D1C97E6DC
:104A4000092801002DE9F041044600251E461746BD
:104A5000880404D405E039462020B0476D1C641E4C
:104A6000F9D52846BDE8F0812DE9F041044600253E
:104A70001E469046C80301D5302700E02027880451
:104A800004D505E041463846B0476D1C641EF9D593
:104A90002846BDE8F0810A68531C0B60107070470F
:104AA000012801D040B109E0012901D011B105E090
:104AB0000120704702207047012901D00020704773
:104AC000032070472DE9F0470D4681620446C16A14
:104AD000C068FBF7C3FB81462946A068FBF7BEFB15
:104AE0008046616A6069FBF7B9FB07462069266A60
:104AF00080F000403146FBF7B1FB3946FBF7A8FBDD
:104B00004146FBF753FB4946FBF750FBE562E0618A
:104B1000C4E90806BDE8F0872DE9F0410B460446DC
:104B200011461846FBF794FBA062E5690646284645
:104B3000616AFBF78DFB07464FF07E50A168FBF7DB
:104B4000BFFB3946FBF78AFBE16AFBF72FFB2063CB
:104B5000616BE068FBF782FB3146FBF77CFB216869
:104B6000FBF77CFB2946FBF721FB20622169FBF761
:104B700071FE01D2206907E06169206AFBF760FEDF
:104B800001D2606900E0206AA061A06AE062206B47
:104B90006063206A6062A069E061BDE8F08170B581
:104BA0000C460860064601250969206AFBF7FEFAF3
:104BB0003146FBF745FE0BD2002020772169206AA1
:104BC000FBF7F4FA20622168FBF744FE16D812E0E6
:104BD0006169206AFBF73CFB2168FBF73BFE0FD2C3
:104BE000022020776169206AFBF732FB206221688E
:104BF000FBF726FE02D8206820622577206A70BD68
:104C0000257720682062F9E70EB5FDF7FDFAFFF77A
:104C10007BFBFFF7DBF9FE48416941F0010141618F
:104C20004069002200F00100009011460B20FDF7C2
:104C300049FB0B20FDF738FBFFF756F90024F64936
:104C40000094F448019408600846FCF720FC08B181
:104C500072B6FEE7009400226946EF480194FCF723
:104C6000EFFB08B172B6FEE710226946EA48FCF78E
:104C7000E7FB08B172B6FEE7FFF734FAFFF766FA12
:104C8000E748E6494FF4E1360160C0E901640C25CC
:104C9000C460C0E904458461C461FEF7CFFA08B17D
:104CA00072B6FEE7DE48DF4980300160C0E901648A
:104CB000C460C0E904458461C461FEF7BFFA08B16D
:104CC00072B6FEE7D948D8490160FCF793FB08B1FA
:104CD00072B6FEE7D048D64F68300621C0E90071B1
:104CE0004FF49C718160FDF75DFA08B172B6FEE782
:104CF000C948D04914300160CF49C0E901144FF4CC
:104D00008041C0E9034140214461C0E90641046299
:104D1000FDF73CF908B172B6FEE7C148C74940301B
:104D200001604FF41651C0E90114C460C0E90445A4
:104D30008461C461FEF782FA08B172B6FEE7FFF73C
:104D40003DFAFFF76FFAFFF7A3FAFFF71FF9B44830
:104D500000949038BA490194C0E9001447F6FF4125
:104D6000C0E9024180218161FDF78EFE08B172B673
:104D7000FEE7AB480094694690380194FDF746FE83
:104D800008B172B6FEE74AF6AA2AC7F800A0A849F9
:104D90004CF6CC4008600022C913AA48FCF753FF28
:104DA0009F480122A8498030FEF71CFB0122A74939
:104DB0009B48FEF717FB9A480122A5494030FEF7B1
:104DC00011FB95487430FDF7F9FE9348BC30FDF7B0
:104DD000F5FEA048FDF7F2FE9E484830FDF7EEFED6
:104DE0008F489038FDF7EAFE8D484838FDF7E6FE1B
:104DF00098483C214838FEF715F887485838FBF7A3
:104E0000CDFE954800F008FE9349944801F030FE2D
:104E10009149934800F0AEFA00217F48FCF785FBEA
:104E200010217D48FCF781FB8E4800F045FC8E4A3E
:104E300002218C4800F050FC00220121894800F03A
:104E40004BFC0121894801F0D9FE0121884801F07D
:104E5000D5FE0121874801F0D1FE0121864801F0ED
:104E6000CDFE0121854801F0C9FE0121844801F0F1
:104E7000C5FEDFF81082DFF81092DFF810B2A8F854
:104E8000004000218248A9F80010ABF80010018012
:104E90008048824A0180804801806421804800F077
:104EA0005FFD7F487D4A6421303000F059FD7C4829
:104EB0007A4A6421603000F053FD7948774A6421D2
:104EC000903000F04DFD7648744A0A21C03000F061
:104ED00047FD7348714A6421F03000F041FD6F4A8C
:104EE0006421704800F03CFD00F02AFC5648DC3894
:104EF00001F038FF5548DC3801F034FF5448DC3805
:104F000001F030FF564E684D684AD6E93601CDE9CA
:104F100000012B464FF07E516548D43601F0BEFAB1
:104F200051493068CDE900015C4B604A4FF07E5139
:104F3000604801F0B3FA604801F0EEFA464E0A22EA
:104F400000233068CDE9000511465C4801F098FB6C
:104F50007068CDE900050A2200231146584801F087
:104F60008FFBF068CDE900050A2200231146554861
:104F700001F086FBB068CDE900050A220023114646
:104F8000514801F07DFB514801F0E4F9304EDFF863
:104F9000CCB0DC3EB8F80010012904D1A8F80040DC
:104FA000324801F009FEB9F80010012904D1A9F82E
:104FB00000402F4801F000FE34480188012903D148
:104FC00004802C4801F0F8FD31480188012903D103
:104FD0000480294801F0F0FD2E4D2888012803D1D6
:104FE0002C80264801F0E8FD2B480188012903D1D7
:104FF0000480234801F0E0FD1C480188012903D109
:10500000C188012900D1C4801948018801295FE0C5
:105010000010024000740040980F0020004C004037
:10502000BC11002000440040003002401400002069
:105030000030004000580040A086010000500040B1
:105040000010004000080140200700200408002054
:10505000E80800209C100020880E0020180E002078
:10506000580100205002002000002040F0080020DD
:10507000B8090020800A0020480B0020100C0020F6
:10508000D80C0020000000200200002004000020B6
:10509000060000200A000020080000206F12033ADA
:1050A00084020020A40300200AD7233CCDCCCC3DB1
:1050B000A00D0020DC0D002044010020B00E0020D7
:1050C0001C0F0020D40E0020F80E00202C00002021
:1050D0000DD1C08801280AD195480078012804D153
:1050E00000F0D6FB934800F09DFB9348C4809348A2
:1050F0000188012903D1C188012900D1C4809048C9
:105100000188012909D1C188012906D10189052910
:1051100002D1012129800481C4808A4801880129A3
:1051200013D10546C08801280FD181480078012895
:105130000AD18748844A85498DE80700854B864A0D
:105140007C49864800F0B6FCEC80854D2888012813
:105150001BD1E888012818D175480178A1B94168A8
:10516000491C416002290FD9012220217D48FCF70A
:105170006AFD012208217B48FCF765FD6C4801218E
:105180008BF8021001704460EC80774890F8DB10D7
:10519000012903D180F8DB4080F8DA40734890F8A9
:1051A000DB10012903D180F8DB4080F8DA4096F863
:1051B000DB00012808D15F4A63496D4801F040FDDA
:1051C00086F8DB4086F8DA4096F8DF00012805D142
:1051D00096F8E00001F0C2F886F8DF4068890128FF
:1051E00014D1288A012811D100203118401CC0B2E6
:1051F00081F8C8400428F8D386F8DE40584886F87D
:10520000DF4086F8E0400A3001F005FDA88A012859
:1052100009D1688B012806D1534801F002FD50489E
:10522000143001F0F8FCE88B012809D1A88C012882
:1052300006D14E4801F0F5FC49481E3001F0EBFC68
:10524000288D012809D1E88D012806D1484801F0B0
:10525000E8FC4348283001F0DEFC688E01280CD1C0
:10526000288F012809D103208BF8010004208BF836
:1052700039003B48323001F0CEFCA88F01280DD117
:10528000B5F84200012809D103218BF801103448F8
:1052900004218BF838103C3001F0BDFCB5F8460015
:1052A00001280CD1B5F84C00012808D103208BF857
:1052B00001008BF838002A48463001F0ACFCB5F804
:1052C000500001280CD1B5F85600012808D103215F
:1052D00023488BF801108BF83A10503001F09BFCFA
:1052E000B5F85A0001280DD1B5F86000012809D1A0
:1052F00003218BF801101A4804218BF83A105A3018
:1053000001F089FCB5F8640001280DD1B5F86A00F8
:10531000012809D103218BF80110114804218BF8D1
:105320003B10643001F077FCC7F800A032E60000C3
:105330000C000020180E0020B8090020800A002070
:10534000480B0020100C00202C000020880E0020AC
:1053500044010020D40E0020B00E0020580100208F
:10536000D80C00200010014044060020280700202F
:105370000C08002070B5044600200E464FEA0005D8
:1053800024F81050401C0728FADB25626562A562EC
:10539000E5624FF07E50E06020616061A061E061F5
:1053A000C4F8BC00C4F8AC00C4F8B000C4F8B40041
:1053B0002563C4F8B8001C48A0641C48E0641C487D
:1053C000C4E91405A565E565F169C4F8F01019494B
:1053D000C4F8F4101849C4F8C41044F8C80F706831
:1053E000A06001213068FAF7A9FFE060F16821614F
:1053F000F169FAF733FF44F8140F104844F8340CFD
:1054000044F8380C0E4844F81C0C44F8445C44F84A
:10541000645C706844F8685C44F83C5C44E91805D6
:1054200044F8405C70BD00005555D53FCDCC6C4074
:105430000000A0403333534000008C420000204164
:105440000000FA432DE9F04704460088FBF72AF9EB
:10545000D4F8F4603146FAF701FFE168FAF7FEFE8E
:10546000924F3946FAF72CFF054620626088FBF719
:1054700019F93146FAF7F2FE2169FAF7EFFE3946DB
:10548000FAF71EFF6062A088FBF70CF93146FAF7C5
:10549000E5FE6169FAF7E2FE3946FAF711FFA0620C
:1054A000E088FBF7FFF83146FAF7D8FEA169FAF772
:1054B000D5FE3946FAF704FFE0622089FBF7F2F8DF
:1054C0003146FAF7CBFEE169FAF7C8FE3946FAF73A
:1054D000F7FE206329467648FFF7F4FA60637448C4
:1054E000616A3030FFF7EEFAA0637148A16A60305C
:1054F000FFF7E8FAE0636E48E16A9030FFF7E2FAFE
:1055000020646B48216BC030FFF7DCFA6064E56C07
:1055100007462946606BFAF7A1FED4F8B810FAF7EF
:105520009DFE824620672946A06BFAF797FED4F8C5
:10553000B410FAF793FEE0660121E06BFAF7FEFE85
:10554000A66C3146FAF78AFED4F850904946FAF72D
:105550007FFED4F8AC10FAF781FE616DFAF726FEF3
:10556000804660660121206CFAF7E8FE3146FAF7C2
:1055700075FE4946FAF76CFED4F8B010FAF76EFEE5
:10558000A16DFAF713FE0546A06601213846FAF729
:10559000D5FE3146FAF762FE4946FAF759FED4F8CD
:1055A000BC10FAF75BFEE16DFAF700FE06462066D6
:1055B00049464046FAF784FED4F8C410FAF74EFE86
:1055C000A067D4F8F010FAF749FEC4F88000494605
:1055D0002846FAF775FED4F8C810FAF73FFEE067E0
:1055E00049463046FAF76CFED4F8C010FAF736FE9A
:1055F00060675046D4F8A410FAF762FED4F8DC5085
:105600002946FAF72BFE2946C4F8A000FBF722F939
:1056100003D2D4F8DC00C4F8A000D4F8F010D4F819
:10562000A0006C34FAF74CFEE062E16B2068FAF7F8
:1056300047FEE56E2946FAF711FE206329466C3CC9
:10564000FBF708F903D2D4F8D800C4F89C00D4F8CA
:10565000DC10D4F8A0007834FAF732FE154E31464B
:10566000FAF7FCFD6067A56DE0692946FAF728FEA8
:105670003146FAF7F3FDA06629466068FAF720FE86
:105680003146FAF7EBFD6061216E606AFAF718FEA9
:105690003146FAF7E3FD2067E16D2068FAF710FE66
:1056A0003146FAF7DBFDA061BDE8F08700F07F45E9
:1056B000840200200000C842002101834183044A83
:1056C0008260C0E903214161024901604160704785
:1056D000000020400000A04070B5174D044601298D
:1056E00017D0022927D162611046E168FAF75EFD02
:1056F0006168FAF7E5FD2946FAF7B0FDFBF70EF809
:1057000083B2002263831021BDE870400B48FBF791
:10571000FFBE22611046A168FAF748FD2168FAF73A
:10572000CFFD2946FAF79AFDFAF7F8FF83B2002277
:1057300023831146E8E770BD00F07F45980F0020F5
:1057400070B5354D08212846FCF770FA334C10210E
:1057500020702846FCF76AFAE07020212846FCF702
:1057600065FAA07140212846FCF760FA607280213A
:105770002846FCF75BFA2073A9152846FCF756FA71
:10578000E0736E1531462846FCF750FAA0740421E8
:105790002846FCF74BFA607521786170E178217139
:1057A000A179E171617AA172217B6173E17B21743E
:1057B000A17CE174A0751A4C002208212046FCF758
:1057C00042FA002204212046FCF73DFA0022022181
:1057D0002046FCF738FA002201212046FCF733FA74
:1057E0000022B1012046FCF72EFA0022202120469B
:1057F000FCF729FA002201212846FCF724FA0022AE
:1058000002212846FCF71FFA31462046BDE87040C9
:105810000022FCF718BA0000000C01406C020020C6
:105820000010014030B5184A022318499478032C1F
:105830000ED1C478012C0BD104794CB98C78012C91
:1058400006D191F838401CB94C78032C00D04B702D
:1058500055790124032D02D1057905B94470127AD6
:105860004AB1012A06D10079002803D148780028DE
:1058700000D10C7030BD00790028FBD14878002899
:10588000F8D10B7030BD00006C020020180E002013
:1058900070B5314D08212846FCF7C8F92F4C10216E
:1058A00020702846FCF7C2F9E07020212846FCF75A
:1058B000BDF9A07140212846FCF7B8F9607280213B
:1058C0002846FCF7B3F92073A9152846FCF7AEF972
:1058D000E07369152846FCF7A9F9A074042128464D
:1058E000FCF7A4F9607561782078FFF7D9F8A0700B
:1058F0002179E078FFF7D4F86071E179A079FFF7BA
:10590000CFF82072A17A607AFFF7CAF8E072617B63
:10591000207BFFF7C5F8A073217CE07BFFF7C0F880
:105920006074E17CA07CFFF7BBF82075A17D607DF1
:10593000FFF7B6F8E07520786070E0782071A07904
:10594000E071607AA072207B6073E07B2074A07CA1
:10595000E074607DA07570BD000C01406C020020F9
:105960002DE9F041044615460846FAF79BFEC4E9C6
:105970000050FAF706FF06460F462846FAF701FFE1
:10598000224A234BFAF78DFD32463B46FAF789FD52
:1059900002460B4600201F49FAF7F5FDFAF734FFDF
:1059A0004FF07E5705463946A061FAF7FFFB0646E1
:1059B0000146FAF753FC804601212846FAF7BEFC5F
:1059C0003946FAF7F3FB4146FAF77AFCA060F90191
:1059D0002846FAF743FC07464146FAF771FCE060B7
:1059E00038463146FAF76CFC294620610846FAF73A
:1059F00035FC4146FAF764FC60610020E0612062FA
:105A00006062A062E062BDE8F0810000A7E8482E75
:105A1000FF2119400000F03F2DE9F04704461A4EDF
:105A20004FF07E50C4E900601948184F20621948B1
:105A3000C4E9020718482061DFF86080DFF8609051
:105A400018481949FAF7E0FE0546E0612946304654
:105A5000FAF704FC606239462846FAF7FFFBFAF7CA
:105A600090FE42464B46FAF78EFD02460B4600205A
:105A70000E49FAF710FD00220D4BFAF784FDFAF7F4
:105A8000C3FEA061BDE8F087000070410000E14462
:105A90000080094500005C430000FA449A999999F6
:105AA0009919234003A8F7F196E6E83F00806B4080
:105AB00000002E402DE9FF4F81B00546109C0E9F3F
:105AC0000E4694F8140101287ED1DFF830B4A86F97
:105AD0005946FAF7C3FBFAF708FE20615946E86F0A
